{
  "contractName": "NFTMarket",
  "abi": [
    {
      "inputs": [],
      "stateMutability": "nonpayable",
      "type": "constructor"
    },
    {
      "anonymous": false,
      "inputs": [
        {
          "indexed": true,
          "internalType": "address",
          "name": "owner",
          "type": "address"
        },
        {
          "indexed": true,
          "internalType": "address",
          "name": "approved",
          "type": "address"
        },
        {
          "indexed": true,
          "internalType": "uint256",
          "name": "tokenId",
          "type": "uint256"
        }
      ],
      "name": "Approval",
      "type": "event"
    },
    {
      "anonymous": false,
      "inputs": [
        {
          "indexed": true,
          "internalType": "address",
          "name": "owner",
          "type": "address"
        },
        {
          "indexed": true,
          "internalType": "address",
          "name": "operator",
          "type": "address"
        },
        {
          "indexed": false,
          "internalType": "bool",
          "name": "approved",
          "type": "bool"
        }
      ],
      "name": "ApprovalForAll",
      "type": "event"
    },
    {
      "anonymous": false,
      "inputs": [
        {
          "indexed": false,
          "internalType": "uint256",
          "name": "tokenId",
          "type": "uint256"
        },
        {
          "indexed": false,
          "internalType": "uint256",
          "name": "price",
          "type": "uint256"
        },
        {
          "indexed": false,
          "internalType": "address",
          "name": "creator",
          "type": "address"
        },
        {
          "indexed": false,
          "internalType": "bool",
          "name": "isListed",
          "type": "bool"
        }
      ],
      "name": "NFTItemCreated",
      "type": "event"
    },
    {
      "anonymous": false,
      "inputs": [
        {
          "indexed": true,
          "internalType": "address",
          "name": "previousOwner",
          "type": "address"
        },
        {
          "indexed": true,
          "internalType": "address",
          "name": "newOwner",
          "type": "address"
        }
      ],
      "name": "OwnershipTransferred",
      "type": "event"
    },
    {
      "anonymous": false,
      "inputs": [
        {
          "indexed": true,
          "internalType": "address",
          "name": "from",
          "type": "address"
        },
        {
          "indexed": true,
          "internalType": "address",
          "name": "to",
          "type": "address"
        },
        {
          "indexed": true,
          "internalType": "uint256",
          "name": "tokenId",
          "type": "uint256"
        }
      ],
      "name": "Transfer",
      "type": "event"
    },
    {
      "inputs": [
        {
          "internalType": "address",
          "name": "to",
          "type": "address"
        },
        {
          "internalType": "uint256",
          "name": "tokenId",
          "type": "uint256"
        }
      ],
      "name": "approve",
      "outputs": [],
      "stateMutability": "nonpayable",
      "type": "function"
    },
    {
      "inputs": [
        {
          "internalType": "address",
          "name": "owner",
          "type": "address"
        }
      ],
      "name": "balanceOf",
      "outputs": [
        {
          "internalType": "uint256",
          "name": "",
          "type": "uint256"
        }
      ],
      "stateMutability": "view",
      "type": "function",
      "constant": true
    },
    {
      "inputs": [
        {
          "internalType": "uint256",
          "name": "tokenId",
          "type": "uint256"
        }
      ],
      "name": "getApproved",
      "outputs": [
        {
          "internalType": "address",
          "name": "",
          "type": "address"
        }
      ],
      "stateMutability": "view",
      "type": "function",
      "constant": true
    },
    {
      "inputs": [
        {
          "internalType": "address",
          "name": "owner",
          "type": "address"
        },
        {
          "internalType": "address",
          "name": "operator",
          "type": "address"
        }
      ],
      "name": "isApprovedForAll",
      "outputs": [
        {
          "internalType": "bool",
          "name": "",
          "type": "bool"
        }
      ],
      "stateMutability": "view",
      "type": "function",
      "constant": true
    },
    {
      "inputs": [],
      "name": "listingPrice",
      "outputs": [
        {
          "internalType": "uint256",
          "name": "",
          "type": "uint256"
        }
      ],
      "stateMutability": "view",
      "type": "function",
      "constant": true
    },
    {
      "inputs": [],
      "name": "name",
      "outputs": [
        {
          "internalType": "string",
          "name": "",
          "type": "string"
        }
      ],
      "stateMutability": "view",
      "type": "function",
      "constant": true
    },
    {
      "inputs": [],
      "name": "owner",
      "outputs": [
        {
          "internalType": "address",
          "name": "",
          "type": "address"
        }
      ],
      "stateMutability": "view",
      "type": "function",
      "constant": true
    },
    {
      "inputs": [
        {
          "internalType": "uint256",
          "name": "tokenId",
          "type": "uint256"
        }
      ],
      "name": "ownerOf",
      "outputs": [
        {
          "internalType": "address",
          "name": "",
          "type": "address"
        }
      ],
      "stateMutability": "view",
      "type": "function",
      "constant": true
    },
    {
      "inputs": [],
      "name": "renounceOwnership",
      "outputs": [],
      "stateMutability": "nonpayable",
      "type": "function"
    },
    {
      "inputs": [
        {
          "internalType": "address",
          "name": "from",
          "type": "address"
        },
        {
          "internalType": "address",
          "name": "to",
          "type": "address"
        },
        {
          "internalType": "uint256",
          "name": "tokenId",
          "type": "uint256"
        }
      ],
      "name": "safeTransferFrom",
      "outputs": [],
      "stateMutability": "nonpayable",
      "type": "function"
    },
    {
      "inputs": [
        {
          "internalType": "address",
          "name": "from",
          "type": "address"
        },
        {
          "internalType": "address",
          "name": "to",
          "type": "address"
        },
        {
          "internalType": "uint256",
          "name": "tokenId",
          "type": "uint256"
        },
        {
          "internalType": "bytes",
          "name": "_data",
          "type": "bytes"
        }
      ],
      "name": "safeTransferFrom",
      "outputs": [],
      "stateMutability": "nonpayable",
      "type": "function"
    },
    {
      "inputs": [
        {
          "internalType": "address",
          "name": "operator",
          "type": "address"
        },
        {
          "internalType": "bool",
          "name": "approved",
          "type": "bool"
        }
      ],
      "name": "setApprovalForAll",
      "outputs": [],
      "stateMutability": "nonpayable",
      "type": "function"
    },
    {
      "inputs": [
        {
          "internalType": "bytes4",
          "name": "interfaceId",
          "type": "bytes4"
        }
      ],
      "name": "supportsInterface",
      "outputs": [
        {
          "internalType": "bool",
          "name": "",
          "type": "bool"
        }
      ],
      "stateMutability": "view",
      "type": "function",
      "constant": true
    },
    {
      "inputs": [],
      "name": "symbol",
      "outputs": [
        {
          "internalType": "string",
          "name": "",
          "type": "string"
        }
      ],
      "stateMutability": "view",
      "type": "function",
      "constant": true
    },
    {
      "inputs": [
        {
          "internalType": "uint256",
          "name": "tokenId",
          "type": "uint256"
        }
      ],
      "name": "tokenURI",
      "outputs": [
        {
          "internalType": "string",
          "name": "",
          "type": "string"
        }
      ],
      "stateMutability": "view",
      "type": "function",
      "constant": true
    },
    {
      "inputs": [
        {
          "internalType": "address",
          "name": "from",
          "type": "address"
        },
        {
          "internalType": "address",
          "name": "to",
          "type": "address"
        },
        {
          "internalType": "uint256",
          "name": "tokenId",
          "type": "uint256"
        }
      ],
      "name": "transferFrom",
      "outputs": [],
      "stateMutability": "nonpayable",
      "type": "function"
    },
    {
      "inputs": [
        {
          "internalType": "address",
          "name": "newOwner",
          "type": "address"
        }
      ],
      "name": "transferOwnership",
      "outputs": [],
      "stateMutability": "nonpayable",
      "type": "function"
    },
    {
      "inputs": [
        {
          "internalType": "string",
          "name": "tokenURI",
          "type": "string"
        }
      ],
      "name": "tokenURIExists",
      "outputs": [
        {
          "internalType": "bool",
          "name": "",
          "type": "bool"
        }
      ],
      "stateMutability": "view",
      "type": "function",
      "constant": true
    },
    {
      "inputs": [
        {
          "internalType": "uint256",
          "name": "newPrice",
          "type": "uint256"
        }
      ],
      "name": "setListingPrice",
      "outputs": [],
      "stateMutability": "nonpayable",
      "type": "function"
    },
    {
      "inputs": [
        {
          "internalType": "string",
          "name": "tokenURI",
          "type": "string"
        },
        {
          "internalType": "uint256",
          "name": "price",
          "type": "uint256"
        }
      ],
      "name": "mintToken",
      "outputs": [
        {
          "internalType": "uint256",
          "name": "",
          "type": "uint256"
        }
      ],
      "stateMutability": "payable",
      "type": "function",
      "payable": true
    },
    {
      "inputs": [],
      "name": "totalSupply",
      "outputs": [
        {
          "internalType": "uint256",
          "name": "",
          "type": "uint256"
        }
      ],
      "stateMutability": "view",
      "type": "function",
      "constant": true
    },
    {
      "inputs": [
        {
          "internalType": "uint256",
          "name": "index",
          "type": "uint256"
        }
      ],
      "name": "tokenByIndex",
      "outputs": [
        {
          "internalType": "uint256",
          "name": "",
          "type": "uint256"
        }
      ],
      "stateMutability": "view",
      "type": "function",
      "constant": true
    },
    {
      "inputs": [
        {
          "internalType": "address",
          "name": "owner",
          "type": "address"
        },
        {
          "internalType": "uint256",
          "name": "index",
          "type": "uint256"
        }
      ],
      "name": "tokenOfOwnerByIndex",
      "outputs": [
        {
          "internalType": "uint256",
          "name": "",
          "type": "uint256"
        }
      ],
      "stateMutability": "view",
      "type": "function",
      "constant": true
    },
    {
      "inputs": [],
      "name": "getAllNFTsForSale",
      "outputs": [
        {
          "components": [
            {
              "internalType": "uint256",
              "name": "tokenId",
              "type": "uint256"
            },
            {
              "internalType": "uint256",
              "name": "price",
              "type": "uint256"
            },
            {
              "internalType": "address",
              "name": "creator",
              "type": "address"
            },
            {
              "internalType": "bool",
              "name": "isListed",
              "type": "bool"
            }
          ],
          "internalType": "struct NFTMarket.NFTItem[]",
          "name": "",
          "type": "tuple[]"
        }
      ],
      "stateMutability": "view",
      "type": "function",
      "constant": true
    },
    {
      "inputs": [],
      "name": "listedItemsCount",
      "outputs": [
        {
          "internalType": "uint256",
          "name": "",
          "type": "uint256"
        }
      ],
      "stateMutability": "view",
      "type": "function",
      "constant": true
    },
    {
      "inputs": [
        {
          "internalType": "uint256",
          "name": "tokenId",
          "type": "uint256"
        }
      ],
      "name": "getNFTItem",
      "outputs": [
        {
          "components": [
            {
              "internalType": "uint256",
              "name": "tokenId",
              "type": "uint256"
            },
            {
              "internalType": "uint256",
              "name": "price",
              "type": "uint256"
            },
            {
              "internalType": "address",
              "name": "creator",
              "type": "address"
            },
            {
              "internalType": "bool",
              "name": "isListed",
              "type": "bool"
            }
          ],
          "internalType": "struct NFTMarket.NFTItem",
          "name": "",
          "type": "tuple"
        }
      ],
      "stateMutability": "view",
      "type": "function",
      "constant": true
    },
    {
      "inputs": [
        {
          "internalType": "uint256",
          "name": "tokenId",
          "type": "uint256"
        }
      ],
      "name": "buyNFT",
      "outputs": [],
      "stateMutability": "payable",
      "type": "function",
      "payable": true
    },
    {
      "inputs": [],
      "name": "getOwnedNfts",
      "outputs": [
        {
          "components": [
            {
              "internalType": "uint256",
              "name": "tokenId",
              "type": "uint256"
            },
            {
              "internalType": "uint256",
              "name": "price",
              "type": "uint256"
            },
            {
              "internalType": "address",
              "name": "creator",
              "type": "address"
            },
            {
              "internalType": "bool",
              "name": "isListed",
              "type": "bool"
            }
          ],
          "internalType": "struct NFTMarket.NFTItem[]",
          "name": "",
          "type": "tuple[]"
        }
      ],
      "stateMutability": "view",
      "type": "function",
      "constant": true
    },
    {
      "inputs": [
        {
          "internalType": "uint256",
          "name": "tokenId",
          "type": "uint256"
        }
      ],
      "name": "burnToken",
      "outputs": [],
      "stateMutability": "nonpayable",
      "type": "function"
    },
    {
      "inputs": [
        {
          "internalType": "uint256",
          "name": "tokenId",
          "type": "uint256"
        },
        {
          "internalType": "uint256",
          "name": "newPrice",
          "type": "uint256"
        }
      ],
      "name": "placeNFTForSale",
      "outputs": [],
      "stateMutability": "payable",
      "type": "function",
      "payable": true
    }
  ],
  "bytecode": "0x608060405266470de4df820000600c553480156200001c57600080fd5b506040518060400160405280601181526020017f46617474794372656174757265734e46540000000000000000000000000000008152506040518060400160405280600581526020017f46434e46540000000000000000000000000000000000000000000000000000008152508160009080519060200190620000a1929190620001b1565b508060019080519060200190620000ba929190620001b1565b505050620000dd620000d1620000e360201b60201c565b620000eb60201b60201c565b620002c5565b600033905090565b6000600760009054906101000a900473ffffffffffffffffffffffffffffffffffffffff16905081600760006101000a81548173ffffffffffffffffffffffffffffffffffffffff021916908373ffffffffffffffffffffffffffffffffffffffff1602179055508173ffffffffffffffffffffffffffffffffffffffff168173ffffffffffffffffffffffffffffffffffffffff167f8be0079c531659141344cd1fd0a4f28419497f9722a3daafe3b4186f6b6457e060405160405180910390a35050565b828054620001bf9062000290565b90600052602060002090601f016020900481019282620001e357600085556200022f565b82601f10620001fe57805160ff19168380011785556200022f565b828001600101855582156200022f579182015b828111156200022e57825182559160200191906001019062000211565b5b5090506200023e919062000242565b5090565b5b808211156200025d57600081600090555060010162000243565b5090565b7f4e487b7100000000000000000000000000000000000000000000000000000000600052602260045260246000fd5b60006002820490506001821680620002a957607f821691505b602082108103620002bf57620002be62000261565b5b50919050565b614c1d80620002d56000396000f3fe6080604052600436106101cd5760003560e01c8063715018a6116100f7578063b88d4fde11610095578063ccb4918d11610064578063ccb4918d14610697578063de58048c146106c2578063e985e9c5146106ed578063f2fde38b1461072a576101cd565b8063b88d4fde146105d6578063c046372c146105ff578063c78f19f91461062f578063c87b56dd1461065a576101cd565b80638da5cb5b116100d15780638da5cb5b1461053b57806395d89b4114610566578063a22cb46514610591578063b69e0ab8146105ba576101cd565b8063715018a6146104d25780637b47ec1a146104e95780637c726b6914610512576101cd565b806342842e0e1161016f5780636352211e1161013e5780636352211e146103f05780636a3ceff91461042d57806370a082311461046a57806370cbcb43146104a7576101cd565b806342842e0e1461033157806343d32ae71461035a5780634f6ccce71461039757806351ed8288146103d4576101cd565b8063095ea7b3116101ab578063095ea7b31461027757806318160ddd146102a057806323b872dd146102cb5780632f745c59146102f4576101cd565b806301ffc9a7146101d257806306fdde031461020f578063081812fc1461023a575b600080fd5b3480156101de57600080fd5b506101f960048036038101906101f491906131ba565b610753565b6040516102069190613202565b60405180910390f35b34801561021b57600080fd5b50610224610835565b60405161023191906132b6565b60405180910390f35b34801561024657600080fd5b50610261600480360381019061025c919061330e565b6108c7565b60405161026e919061337c565b60405180910390f35b34801561028357600080fd5b5061029e600480360381019061029991906133c3565b61094c565b005b3480156102ac57600080fd5b506102b5610a63565b6040516102c29190613412565b60405180910390f35b3480156102d757600080fd5b506102f260048036038101906102ed919061342d565b610a70565b005b34801561030057600080fd5b5061031b600480360381019061031691906133c3565b610ad0565b6040516103289190613412565b60405180910390f35b34801561033d57600080fd5b506103586004803603810190610353919061342d565b610b75565b005b34801561036657600080fd5b50610381600480360381019061037c91906135b5565b610b95565b60405161038e9190613202565b60405180910390f35b3480156103a357600080fd5b506103be60048036038101906103b9919061330e565b610bd1565b6040516103cb9190613412565b60405180910390f35b6103ee60048036038101906103e9919061330e565b610c42565b005b3480156103fc57600080fd5b506104176004803603810190610412919061330e565b610daa565b604051610424919061337c565b60405180910390f35b34801561043957600080fd5b50610454600480360381019061044f919061330e565b610e5b565b6040516104619190613680565b60405180910390f35b34801561047657600080fd5b50610491600480360381019061048c919061369b565b610f0d565b60405161049e9190613412565b60405180910390f35b3480156104b357600080fd5b506104bc610fc4565b6040516104c991906137cc565b60405180910390f35b3480156104de57600080fd5b506104e7611128565b005b3480156104f557600080fd5b50610510600480360381019061050b919061330e565b6111b0565b005b34801561051e57600080fd5b506105396004803603810190610534919061330e565b6111bc565b005b34801561054757600080fd5b50610550611285565b60405161055d919061337c565b60405180910390f35b34801561057257600080fd5b5061057b6112af565b60405161058891906132b6565b60405180910390f35b34801561059d57600080fd5b506105b860048036038101906105b3919061381a565b611341565b005b6105d460048036038101906105cf919061385a565b611357565b005b3480156105e257600080fd5b506105fd60048036038101906105f8919061393b565b6114d3565b005b610619600480360381019061061491906139be565b611535565b6040516106269190613412565b60405180910390f35b34801561063b57600080fd5b50610644611645565b6040516106519190613412565b60405180910390f35b34801561066657600080fd5b50610681600480360381019061067c919061330e565b61164b565b60405161068e91906132b6565b60405180910390f35b3480156106a357600080fd5b506106ac61179c565b6040516106b99190613412565b60405180910390f35b3480156106ce57600080fd5b506106d76117ad565b6040516106e491906137cc565b60405180910390f35b3480156106f957600080fd5b50610714600480360381019061070f9190613a1a565b611947565b6040516107219190613202565b60405180910390f35b34801561073657600080fd5b50610751600480360381019061074c919061369b565b6119db565b005b60007f80ac58cd000000000000000000000000000000000000000000000000000000007bffffffffffffffffffffffffffffffffffffffffffffffffffffffff1916827bffffffffffffffffffffffffffffffffffffffffffffffffffffffff1916148061081e57507f5b5e139f000000000000000000000000000000000000000000000000000000007bffffffffffffffffffffffffffffffffffffffffffffffffffffffff1916827bffffffffffffffffffffffffffffffffffffffffffffffffffffffff1916145b8061082e575061082d82611ad2565b5b9050919050565b60606000805461084490613a89565b80601f016020809104026020016040519081016040528092919081815260200182805461087090613a89565b80156108bd5780601f10610892576101008083540402835291602001916108bd565b820191906000526020600020905b8154815290600101906020018083116108a057829003601f168201915b5050505050905090565b60006108d282611b3c565b610911576040517f08c379a000000000000000000000000000000000000000000000000000000000815260040161090890613b2c565b60405180910390fd5b6004600083815260200190815260200160002060009054906101000a900473ffffffffffffffffffffffffffffffffffffffff169050919050565b600061095782610daa565b90508073ffffffffffffffffffffffffffffffffffffffff168373ffffffffffffffffffffffffffffffffffffffff16036109c7576040517f08c379a00000000000000000000000000000000000000000000000000000000081526004016109be90613bbe565b60405180910390fd5b8073ffffffffffffffffffffffffffffffffffffffff166109e6611ba8565b73ffffffffffffffffffffffffffffffffffffffff161480610a155750610a1481610a0f611ba8565b611947565b5b610a54576040517f08c379a0000000000000000000000000000000000000000000000000000000008152600401610a4b90613c50565b60405180910390fd5b610a5e8383611bb0565b505050565b6000600a80549050905090565b610a81610a7b611ba8565b82611c69565b610ac0576040517f08c379a0000000000000000000000000000000000000000000000000000000008152600401610ab790613ce2565b60405180910390fd5b610acb838383611d47565b505050565b6000610adb83610f0d565b8210610b1c576040517f08c379a0000000000000000000000000000000000000000000000000000000008152600401610b1390613d4e565b60405180910390fd5b600f60008473ffffffffffffffffffffffffffffffffffffffff1673ffffffffffffffffffffffffffffffffffffffff168152602001908152602001600020600083815260200190815260200160002054905092915050565b610b90838383604051806020016040528060008152506114d3565b505050565b600060011515600d83604051610bab9190613daa565b908152602001604051809103902060009054906101000a900460ff161515149050919050565b6000610bdb610a63565b8210610c1c576040517f08c379a0000000000000000000000000000000000000000000000000000000008152600401610c1390613d4e565b60405180910390fd5b600a8281548110610c3057610c2f613dc1565b5b90600052602060002001549050919050565b6000600e60008381526020019081526020016000206001015490506000610c6883610daa565b90508073ffffffffffffffffffffffffffffffffffffffff163373ffffffffffffffffffffffffffffffffffffffff1603610cd8576040517f08c379a0000000000000000000000000000000000000000000000000000000008152600401610ccf90613e3c565b60405180910390fd5b813414610d1a576040517f08c379a0000000000000000000000000000000000000000000000000000000008152600401610d1190613ea8565b60405180910390fd5b6000600e600085815260200190815260200160002060020160146101000a81548160ff021916908315150217905550610d536008611fad565b610d5e813385611d47565b8073ffffffffffffffffffffffffffffffffffffffff166108fc349081150290604051600060405180830381858888f19350505050158015610da4573d6000803e3d6000fd5b50505050565b6000806002600084815260200190815260200160002060009054906101000a900473ffffffffffffffffffffffffffffffffffffffff169050600073ffffffffffffffffffffffffffffffffffffffff168173ffffffffffffffffffffffffffffffffffffffff1603610e52576040517f08c379a0000000000000000000000000000000000000000000000000000000008152600401610e4990613f3a565b60405180910390fd5b80915050919050565b610e6361302b565b600e600083815260200190815260200160002060405180608001604052908160008201548152602001600182015481526020016002820160009054906101000a900473ffffffffffffffffffffffffffffffffffffffff1673ffffffffffffffffffffffffffffffffffffffff1673ffffffffffffffffffffffffffffffffffffffff1681526020016002820160149054906101000a900460ff1615151515815250509050919050565b60008073ffffffffffffffffffffffffffffffffffffffff168273ffffffffffffffffffffffffffffffffffffffff1603610f7d576040517f08c379a0000000000000000000000000000000000000000000000000000000008152600401610f7490613fcc565b60405180910390fd5b600360008373ffffffffffffffffffffffffffffffffffffffff1673ffffffffffffffffffffffffffffffffffffffff168152602001908152602001600020549050919050565b60606000610fd133610f0d565b905060008167ffffffffffffffff811115610fef57610fee61348a565b5b60405190808252806020026020018201604052801561102857816020015b61101561302b565b81526020019060019003908161100d5790505b50905060005b8281101561111f5760006110423383610ad0565b90506000600e600083815260200190815260200160002090508060405180608001604052908160008201548152602001600182015481526020016002820160009054906101000a900473ffffffffffffffffffffffffffffffffffffffff1673ffffffffffffffffffffffffffffffffffffffff1673ffffffffffffffffffffffffffffffffffffffff1681526020016002820160149054906101000a900460ff1615151515815250508484815181106110ff576110fe613dc1565b5b6020026020010181905250505080806111179061401b565b91505061102e565b50809250505090565b611130611ba8565b73ffffffffffffffffffffffffffffffffffffffff1661114e611285565b73ffffffffffffffffffffffffffffffffffffffff16146111a4576040517f08c379a000000000000000000000000000000000000000000000000000000000815260040161119b906140af565b60405180910390fd5b6111ae6000612009565b565b6111b9816120cf565b50565b6111c4611ba8565b73ffffffffffffffffffffffffffffffffffffffff166111e2611285565b73ffffffffffffffffffffffffffffffffffffffff1614611238576040517f08c379a000000000000000000000000000000000000000000000000000000000815260040161122f906140af565b60405180910390fd5b6000811161127b576040517f08c379a00000000000000000000000000000000000000000000000000000000081526004016112729061411b565b60405180910390fd5b80600c8190555050565b6000600760009054906101000a900473ffffffffffffffffffffffffffffffffffffffff16905090565b6060600180546112be90613a89565b80601f01602080910402602001604051908101604052809291908181526020018280546112ea90613a89565b80156113375780601f1061130c57610100808354040283529160200191611337565b820191906000526020600020905b81548152906001019060200180831161131a57829003601f168201915b5050505050905090565b61135361134c611ba8565b8383612122565b5050565b3373ffffffffffffffffffffffffffffffffffffffff1661137783610daa565b73ffffffffffffffffffffffffffffffffffffffff16146113cd576040517f08c379a00000000000000000000000000000000000000000000000000000000081526004016113c490614187565b60405180910390fd5b60001515600e600084815260200190815260200160002060020160149054906101000a900460ff16151514611437576040517f08c379a000000000000000000000000000000000000000000000000000000000815260040161142e906141f3565b60405180910390fd5b600c54341461147b576040517f08c379a000000000000000000000000000000000000000000000000000000000815260040161147290614285565b60405180910390fd5b6001600e600084815260200190815260200160002060020160146101000a81548160ff02191690831515021790555080600e6000848152602001908152602001600020600101819055506114cf600861228e565b5050565b6114e46114de611ba8565b83611c69565b611523576040517f08c379a000000000000000000000000000000000000000000000000000000000815260040161151a90613ce2565b60405180910390fd5b61152f848484846122a4565b50505050565b600061154083610b95565b15611580576040517f08c379a0000000000000000000000000000000000000000000000000000000008152600401611577906142f1565b60405180910390fd5b600c5434146115c4576040517f08c379a00000000000000000000000000000000000000000000000000000000081526004016115bb90614285565b60405180910390fd5b6115ce600961228e565b6115d8600861228e565b60006115e46009612300565b90506115f0338261230e565b6115fa818561232c565b61160481846123a0565b6001600d856040516116169190613daa565b908152602001604051809103902060006101000a81548160ff0219169083151502179055508091505092915050565b600c5481565b606061165682611b3c565b611695576040517f08c379a000000000000000000000000000000000000000000000000000000000815260040161168c90614383565b60405180910390fd5b60006006600084815260200190815260200160002080546116b590613a89565b80601f01602080910402602001604051908101604052809291908181526020018280546116e190613a89565b801561172e5780601f106117035761010080835404028352916020019161172e565b820191906000526020600020905b81548152906001019060200180831161171157829003601f168201915b50505050509050600061173f6124f0565b90506000815103611754578192505050611797565b6000825111156117895780826040516020016117719291906143a3565b60405160208183030381529060405292505050611797565b61179284612507565b925050505b919050565b60006117a86008612300565b905090565b606060006117b9610a63565b90506000806117c86008612300565b67ffffffffffffffff8111156117e1576117e061348a565b5b60405190808252806020026020018201604052801561181a57816020015b61180761302b565b8152602001906001900390816117ff5790505b50905060005b8381101561193d57600061183382610bd1565b90506000600e60008381526020019081526020016000209050600115158160020160149054906101000a900460ff16151503611928578060405180608001604052908160008201548152602001600182015481526020016002820160009054906101000a900473ffffffffffffffffffffffffffffffffffffffff1673ffffffffffffffffffffffffffffffffffffffff1673ffffffffffffffffffffffffffffffffffffffff1681526020016002820160149054906101000a900460ff16151515158152505084868151811061190d5761190c613dc1565b5b602002602001018190525060018561192591906143c7565b94505b505080806119359061401b565b915050611820565b5080935050505090565b6000600560008473ffffffffffffffffffffffffffffffffffffffff1673ffffffffffffffffffffffffffffffffffffffff16815260200190815260200160002060008373ffffffffffffffffffffffffffffffffffffffff1673ffffffffffffffffffffffffffffffffffffffff16815260200190815260200160002060009054906101000a900460ff16905092915050565b6119e3611ba8565b73ffffffffffffffffffffffffffffffffffffffff16611a01611285565b73ffffffffffffffffffffffffffffffffffffffff1614611a57576040517f08c379a0000000000000000000000000000000000000000000000000000000008152600401611a4e906140af565b60405180910390fd5b600073ffffffffffffffffffffffffffffffffffffffff168173ffffffffffffffffffffffffffffffffffffffff1603611ac6576040517f08c379a0000000000000000000000000000000000000000000000000000000008152600401611abd9061448f565b60405180910390fd5b611acf81612009565b50565b60007f01ffc9a7000000000000000000000000000000000000000000000000000000007bffffffffffffffffffffffffffffffffffffffffffffffffffffffff1916827bffffffffffffffffffffffffffffffffffffffffffffffffffffffff1916149050919050565b60008073ffffffffffffffffffffffffffffffffffffffff166002600084815260200190815260200160002060009054906101000a900473ffffffffffffffffffffffffffffffffffffffff1673ffffffffffffffffffffffffffffffffffffffff1614159050919050565b600033905090565b816004600083815260200190815260200160002060006101000a81548173ffffffffffffffffffffffffffffffffffffffff021916908373ffffffffffffffffffffffffffffffffffffffff160217905550808273ffffffffffffffffffffffffffffffffffffffff16611c2383610daa565b73ffffffffffffffffffffffffffffffffffffffff167f8c5be1e5ebec7d5bd14f71427d1e84f3dd0314c0f7b2291e5b200ac8c7c3b92560405160405180910390a45050565b6000611c7482611b3c565b611cb3576040517f08c379a0000000000000000000000000000000000000000000000000000000008152600401611caa90614521565b60405180910390fd5b6000611cbe83610daa565b90508073ffffffffffffffffffffffffffffffffffffffff168473ffffffffffffffffffffffffffffffffffffffff161480611d005750611cff8185611947565b5b80611d3e57508373ffffffffffffffffffffffffffffffffffffffff16611d26846108c7565b73ffffffffffffffffffffffffffffffffffffffff16145b91505092915050565b8273ffffffffffffffffffffffffffffffffffffffff16611d6782610daa565b73ffffffffffffffffffffffffffffffffffffffff1614611dbd576040517f08c379a0000000000000000000000000000000000000000000000000000000008152600401611db4906145b3565b60405180910390fd5b600073ffffffffffffffffffffffffffffffffffffffff168273ffffffffffffffffffffffffffffffffffffffff1603611e2c576040517f08c379a0000000000000000000000000000000000000000000000000000000008152600401611e2390614645565b60405180910390fd5b611e378383836125ae565b611e42600082611bb0565b6001600360008573ffffffffffffffffffffffffffffffffffffffff1673ffffffffffffffffffffffffffffffffffffffff1681526020019081526020016000206000828254611e929190614665565b925050819055506001600360008473ffffffffffffffffffffffffffffffffffffffff1673ffffffffffffffffffffffffffffffffffffffff1681526020019081526020016000206000828254611ee991906143c7565b92505081905550816002600083815260200190815260200160002060006101000a81548173ffffffffffffffffffffffffffffffffffffffff021916908373ffffffffffffffffffffffffffffffffffffffff160217905550808273ffffffffffffffffffffffffffffffffffffffff168473ffffffffffffffffffffffffffffffffffffffff167fddf252ad1be2c89b69c2b068fc378daa952ba7f163c4a11628f55a4df523b3ef60405160405180910390a4611fa88383836126c0565b505050565b60008160000154905060008111611ff9576040517f08c379a0000000000000000000000000000000000000000000000000000000008152600401611ff0906146e5565b60405180910390fd5b6001810382600001819055505050565b6000600760009054906101000a900473ffffffffffffffffffffffffffffffffffffffff16905081600760006101000a81548173ffffffffffffffffffffffffffffffffffffffff021916908373ffffffffffffffffffffffffffffffffffffffff1602179055508173ffffffffffffffffffffffffffffffffffffffff168173ffffffffffffffffffffffffffffffffffffffff167f8be0079c531659141344cd1fd0a4f28419497f9722a3daafe3b4186f6b6457e060405160405180910390a35050565b6120d8816126c5565b60006006600083815260200190815260200160002080546120f890613a89565b90501461211f5760066000828152602001908152602001600020600061211e919061306b565b5b50565b8173ffffffffffffffffffffffffffffffffffffffff168373ffffffffffffffffffffffffffffffffffffffff1603612190576040517f08c379a000000000000000000000000000000000000000000000000000000000815260040161218790614751565b60405180910390fd5b80600560008573ffffffffffffffffffffffffffffffffffffffff1673ffffffffffffffffffffffffffffffffffffffff16815260200190815260200160002060008473ffffffffffffffffffffffffffffffffffffffff1673ffffffffffffffffffffffffffffffffffffffff16815260200190815260200160002060006101000a81548160ff0219169083151502179055508173ffffffffffffffffffffffffffffffffffffffff168373ffffffffffffffffffffffffffffffffffffffff167f17307eab39ab6107e8899845ad3d59bd9653f200f220920489ca2b5937696c31836040516122819190613202565b60405180910390a3505050565b6001816000016000828254019250508190555050565b6122af848484611d47565b6122bb848484846127e2565b6122fa576040517f08c379a00000000000000000000000000000000000000000000000000000000081526004016122f1906147e3565b60405180910390fd5b50505050565b600081600001549050919050565b612328828260405180602001604052806000815250612969565b5050565b61233582611b3c565b612374576040517f08c379a000000000000000000000000000000000000000000000000000000000815260040161236b90614875565b60405180910390fd5b8060066000848152602001908152602001600020908051906020019061239b9291906130ab565b505050565b600081116123e3576040517f08c379a00000000000000000000000000000000000000000000000000000000081526004016123da9061411b565b60405180910390fd5b60405180608001604052808381526020018281526020013373ffffffffffffffffffffffffffffffffffffffff16815260200160011515815250600e6000848152602001908152602001600020600082015181600001556020820151816001015560408201518160020160006101000a81548173ffffffffffffffffffffffffffffffffffffffff021916908373ffffffffffffffffffffffffffffffffffffffff16021790555060608201518160020160146101000a81548160ff0219169083151502179055509050507f43f35c7892cef3db6314a5b129e161ca0731bb9e4a5d4f7244b605bb7b65b11582823360016040516124e49493929190614895565b60405180910390a15050565b606060405180602001604052806000815250905090565b606061251282611b3c565b612551576040517f08c379a00000000000000000000000000000000000000000000000000000000081526004016125489061494c565b60405180910390fd5b600061255b6124f0565b9050600081511161257b57604051806020016040528060008152506125a6565b80612585846129c4565b6040516020016125969291906143a3565b6040516020818303038152906040525b915050919050565b6125b9838383612b24565b600073ffffffffffffffffffffffffffffffffffffffff168373ffffffffffffffffffffffffffffffffffffffff16036125fb576125f681612b29565b61263a565b8173ffffffffffffffffffffffffffffffffffffffff168373ffffffffffffffffffffffffffffffffffffffff1614612639576126388382612b72565b5b5b600073ffffffffffffffffffffffffffffffffffffffff168273ffffffffffffffffffffffffffffffffffffffff160361267c5761267781612cdf565b6126bb565b8273ffffffffffffffffffffffffffffffffffffffff168273ffffffffffffffffffffffffffffffffffffffff16146126ba576126b98282612db0565b5b5b505050565b505050565b60006126d082610daa565b90506126de816000846125ae565b6126e9600083611bb0565b6001600360008373ffffffffffffffffffffffffffffffffffffffff1673ffffffffffffffffffffffffffffffffffffffff16815260200190815260200160002060008282546127399190614665565b925050819055506002600083815260200190815260200160002060006101000a81549073ffffffffffffffffffffffffffffffffffffffff021916905581600073ffffffffffffffffffffffffffffffffffffffff168273ffffffffffffffffffffffffffffffffffffffff167fddf252ad1be2c89b69c2b068fc378daa952ba7f163c4a11628f55a4df523b3ef60405160405180910390a46127de816000846126c0565b5050565b60006128038473ffffffffffffffffffffffffffffffffffffffff16612e2f565b1561295c578373ffffffffffffffffffffffffffffffffffffffff1663150b7a0261282c611ba8565b8786866040518563ffffffff1660e01b815260040161284e94939291906149c1565b6020604051808303816000875af192505050801561288a57506040513d601f19601f820116820180604052508101906128879190614a22565b60015b61290c573d80600081146128ba576040519150601f19603f3d011682016040523d82523d6000602084013e6128bf565b606091505b506000815103612904576040517f08c379a00000000000000000000000000000000000000000000000000000000081526004016128fb906147e3565b60405180910390fd5b805181602001fd5b63150b7a0260e01b7bffffffffffffffffffffffffffffffffffffffffffffffffffffffff1916817bffffffffffffffffffffffffffffffffffffffffffffffffffffffff191614915050612961565b600190505b949350505050565b6129738383612e52565b61298060008484846127e2565b6129bf576040517f08c379a00000000000000000000000000000000000000000000000000000000081526004016129b6906147e3565b60405180910390fd5b505050565b606060008203612a0b576040518060400160405280600181526020017f30000000000000000000000000000000000000000000000000000000000000008152509050612b1f565b600082905060005b60008214612a3d578080612a269061401b565b915050600a82612a369190614a7e565b9150612a13565b60008167ffffffffffffffff811115612a5957612a5861348a565b5b6040519080825280601f01601f191660200182016040528015612a8b5781602001600182028036833780820191505090505b5090505b60008514612b1857600182612aa49190614665565b9150600a85612ab39190614aaf565b6030612abf91906143c7565b60f81b818381518110612ad557612ad4613dc1565b5b60200101907effffffffffffffffffffffffffffffffffffffffffffffffffffffffffffff1916908160001a905350600a85612b119190614a7e565b9450612a8f565b8093505050505b919050565b505050565b600a80549050600b600083815260200190815260200160002081905550600a81908060018154018082558091505060019003906000526020600020016000909190919091505550565b60006001612b7f84610f0d565b612b899190614665565b9050600060106000848152602001908152602001600020549050818114612c6e576000600f60008673ffffffffffffffffffffffffffffffffffffffff1673ffffffffffffffffffffffffffffffffffffffff168152602001908152602001600020600084815260200190815260200160002054905080600f60008773ffffffffffffffffffffffffffffffffffffffff1673ffffffffffffffffffffffffffffffffffffffff168152602001908152602001600020600084815260200190815260200160002081905550816010600083815260200190815260200160002081905550505b6010600084815260200190815260200160002060009055600f60008573ffffffffffffffffffffffffffffffffffffffff1673ffffffffffffffffffffffffffffffffffffffff16815260200190815260200160002060008381526020019081526020016000206000905550505050565b60006001600a80549050612cf39190614665565b90506000600b60008481526020019081526020016000205490506000600a8381548110612d2357612d22613dc1565b5b9060005260206000200154905080600a8381548110612d4557612d44613dc1565b5b906000526020600020018190555081600b600083815260200190815260200160002081905550600b600085815260200190815260200160002060009055600a805480612d9457612d93614ae0565b5b6001900381819060005260206000200160009055905550505050565b6000612dbb83610f0d565b905081600f60008573ffffffffffffffffffffffffffffffffffffffff1673ffffffffffffffffffffffffffffffffffffffff168152602001908152602001600020600083815260200190815260200160002081905550806010600084815260200190815260200160002081905550505050565b6000808273ffffffffffffffffffffffffffffffffffffffff163b119050919050565b600073ffffffffffffffffffffffffffffffffffffffff168273ffffffffffffffffffffffffffffffffffffffff1603612ec1576040517f08c379a0000000000000000000000000000000000000000000000000000000008152600401612eb890614b5b565b60405180910390fd5b612eca81611b3c565b15612f0a576040517f08c379a0000000000000000000000000000000000000000000000000000000008152600401612f0190614bc7565b60405180910390fd5b612f16600083836125ae565b6001600360008473ffffffffffffffffffffffffffffffffffffffff1673ffffffffffffffffffffffffffffffffffffffff1681526020019081526020016000206000828254612f6691906143c7565b92505081905550816002600083815260200190815260200160002060006101000a81548173ffffffffffffffffffffffffffffffffffffffff021916908373ffffffffffffffffffffffffffffffffffffffff160217905550808273ffffffffffffffffffffffffffffffffffffffff16600073ffffffffffffffffffffffffffffffffffffffff167fddf252ad1be2c89b69c2b068fc378daa952ba7f163c4a11628f55a4df523b3ef60405160405180910390a4613027600083836126c0565b5050565b60405180608001604052806000815260200160008152602001600073ffffffffffffffffffffffffffffffffffffffff1681526020016000151581525090565b50805461307790613a89565b6000825580601f1061308957506130a8565b601f0160209004906000526020600020908101906130a79190613131565b5b50565b8280546130b790613a89565b90600052602060002090601f0160209004810192826130d95760008555613120565b82601f106130f257805160ff1916838001178555613120565b82800160010185558215613120579182015b8281111561311f578251825591602001919060010190613104565b5b50905061312d9190613131565b5090565b5b8082111561314a576000816000905550600101613132565b5090565b6000604051905090565b600080fd5b600080fd5b60007fffffffff0000000000000000000000000000000000000000000000000000000082169050919050565b61319781613162565b81146131a257600080fd5b50565b6000813590506131b48161318e565b92915050565b6000602082840312156131d0576131cf613158565b5b60006131de848285016131a5565b91505092915050565b60008115159050919050565b6131fc816131e7565b82525050565b600060208201905061321760008301846131f3565b92915050565b600081519050919050565b600082825260208201905092915050565b60005b8381101561325757808201518184015260208101905061323c565b83811115613266576000848401525b50505050565b6000601f19601f8301169050919050565b60006132888261321d565b6132928185613228565b93506132a2818560208601613239565b6132ab8161326c565b840191505092915050565b600060208201905081810360008301526132d0818461327d565b905092915050565b6000819050919050565b6132eb816132d8565b81146132f657600080fd5b50565b600081359050613308816132e2565b92915050565b60006020828403121561332457613323613158565b5b6000613332848285016132f9565b91505092915050565b600073ffffffffffffffffffffffffffffffffffffffff82169050919050565b60006133668261333b565b9050919050565b6133768161335b565b82525050565b6000602082019050613391600083018461336d565b92915050565b6133a08161335b565b81146133ab57600080fd5b50565b6000813590506133bd81613397565b92915050565b600080604083850312156133da576133d9613158565b5b60006133e8858286016133ae565b92505060206133f9858286016132f9565b9150509250929050565b61340c816132d8565b82525050565b60006020820190506134276000830184613403565b92915050565b60008060006060848603121561344657613445613158565b5b6000613454868287016133ae565b9350506020613465868287016133ae565b9250506040613476868287016132f9565b9150509250925092565b600080fd5b600080fd5b7f4e487b7100000000000000000000000000000000000000000000000000000000600052604160045260246000fd5b6134c28261326c565b810181811067ffffffffffffffff821117156134e1576134e061348a565b5b80604052505050565b60006134f461314e565b905061350082826134b9565b919050565b600067ffffffffffffffff8211156135205761351f61348a565b5b6135298261326c565b9050602081019050919050565b82818337600083830152505050565b600061355861355384613505565b6134ea565b90508281526020810184848401111561357457613573613485565b5b61357f848285613536565b509392505050565b600082601f83011261359c5761359b613480565b5b81356135ac848260208601613545565b91505092915050565b6000602082840312156135cb576135ca613158565b5b600082013567ffffffffffffffff8111156135e9576135e861315d565b5b6135f584828501613587565b91505092915050565b613607816132d8565b82525050565b6136168161335b565b82525050565b613625816131e7565b82525050565b60808201600082015161364160008501826135fe565b50602082015161365460208501826135fe565b506040820151613667604085018261360d565b50606082015161367a606085018261361c565b50505050565b6000608082019050613695600083018461362b565b92915050565b6000602082840312156136b1576136b0613158565b5b60006136bf848285016133ae565b91505092915050565b600081519050919050565b600082825260208201905092915050565b6000819050602082019050919050565b60808201600082015161370a60008501826135fe565b50602082015161371d60208501826135fe565b506040820151613730604085018261360d565b506060820151613743606085018261361c565b50505050565b600061375583836136f4565b60808301905092915050565b6000602082019050919050565b6000613779826136c8565b61378381856136d3565b935061378e836136e4565b8060005b838110156137bf5781516137a68882613749565b97506137b183613761565b925050600181019050613792565b5085935050505092915050565b600060208201905081810360008301526137e6818461376e565b905092915050565b6137f7816131e7565b811461380257600080fd5b50565b600081359050613814816137ee565b92915050565b6000806040838503121561383157613830613158565b5b600061383f858286016133ae565b925050602061385085828601613805565b9150509250929050565b6000806040838503121561387157613870613158565b5b600061387f858286016132f9565b9250506020613890858286016132f9565b9150509250929050565b600067ffffffffffffffff8211156138b5576138b461348a565b5b6138be8261326c565b9050602081019050919050565b60006138de6138d98461389a565b6134ea565b9050828152602081018484840111156138fa576138f9613485565b5b613905848285613536565b509392505050565b600082601f83011261392257613921613480565b5b81356139328482602086016138cb565b91505092915050565b6000806000806080858703121561395557613954613158565b5b6000613963878288016133ae565b9450506020613974878288016133ae565b9350506040613985878288016132f9565b925050606085013567ffffffffffffffff8111156139a6576139a561315d565b5b6139b28782880161390d565b91505092959194509250565b600080604083850312156139d5576139d4613158565b5b600083013567ffffffffffffffff8111156139f3576139f261315d565b5b6139ff85828601613587565b9250506020613a10858286016132f9565b9150509250929050565b60008060408385031215613a3157613a30613158565b5b6000613a3f858286016133ae565b9250506020613a50858286016133ae565b9150509250929050565b7f4e487b7100000000000000000000000000000000000000000000000000000000600052602260045260246000fd5b60006002820490506001821680613aa157607f821691505b602082108103613ab457613ab3613a5a565b5b50919050565b7f4552433732313a20617070726f76656420717565727920666f72206e6f6e657860008201527f697374656e7420746f6b656e0000000000000000000000000000000000000000602082015250565b6000613b16602c83613228565b9150613b2182613aba565b604082019050919050565b60006020820190508181036000830152613b4581613b09565b9050919050565b7f4552433732313a20617070726f76616c20746f2063757272656e74206f776e6560008201527f7200000000000000000000000000000000000000000000000000000000000000602082015250565b6000613ba8602183613228565b9150613bb382613b4c565b604082019050919050565b60006020820190508181036000830152613bd781613b9b565b9050919050565b7f4552433732313a20617070726f76652063616c6c6572206973206e6f74206f7760008201527f6e6572206e6f7220617070726f76656420666f7220616c6c0000000000000000602082015250565b6000613c3a603883613228565b9150613c4582613bde565b604082019050919050565b60006020820190508181036000830152613c6981613c2d565b9050919050565b7f4552433732313a207472616e736665722063616c6c6572206973206e6f74206f60008201527f776e6572206e6f7220617070726f766564000000000000000000000000000000602082015250565b6000613ccc603183613228565b9150613cd782613c70565b604082019050919050565b60006020820190508181036000830152613cfb81613cbf565b9050919050565b7f496e646578206f7574206f6620626f756e647300000000000000000000000000600082015250565b6000613d38601383613228565b9150613d4382613d02565b602082019050919050565b60006020820190508181036000830152613d6781613d2b565b9050919050565b600081905092915050565b6000613d848261321d565b613d8e8185613d6e565b9350613d9e818560208601613239565b80840191505092915050565b6000613db68284613d79565b915081905092915050565b7f4e487b7100000000000000000000000000000000000000000000000000000000600052603260045260246000fd5b7f596f7520616c7265616479206861766520746865204e46540000000000000000600082015250565b6000613e26601883613228565b9150613e3182613df0565b602082019050919050565b60006020820190508181036000830152613e5581613e19565b9050919050565b7f506c65617365207375626d6974207468652061736b696e672070726963650000600082015250565b6000613e92601e83613228565b9150613e9d82613e5c565b602082019050919050565b60006020820190508181036000830152613ec181613e85565b9050919050565b7f4552433732313a206f776e657220717565727920666f72206e6f6e657869737460008201527f656e7420746f6b656e0000000000000000000000000000000000000000000000602082015250565b6000613f24602983613228565b9150613f2f82613ec8565b604082019050919050565b60006020820190508181036000830152613f5381613f17565b9050919050565b7f4552433732313a2062616c616e636520717565727920666f7220746865207a6560008201527f726f206164647265737300000000000000000000000000000000000000000000602082015250565b6000613fb6602a83613228565b9150613fc182613f5a565b604082019050919050565b60006020820190508181036000830152613fe581613fa9565b9050919050565b7f4e487b7100000000000000000000000000000000000000000000000000000000600052601160045260246000fd5b6000614026826132d8565b91507fffffffffffffffffffffffffffffffffffffffffffffffffffffffffffffffff820361405857614057613fec565b5b600182019050919050565b7f4f776e61626c653a2063616c6c6572206973206e6f7420746865206f776e6572600082015250565b6000614099602083613228565b91506140a482614063565b602082019050919050565b600060208201905081810360008301526140c88161408c565b9050919050565b7f5072696365206d757374206265206174206c6561737420312077656900000000600082015250565b6000614105601c83613228565b9150614110826140cf565b602082019050919050565b60006020820190508181036000830152614134816140f8565b9050919050565b7f596f7520617265206e6f74206f776e6572206f662074686973206e6674000000600082015250565b6000614171601d83613228565b915061417c8261413b565b602082019050919050565b600060208201905081810360008301526141a081614164565b9050919050565b7f4974656d20697320616c726561647920666f722073616c650000000000000000600082015250565b60006141dd601883613228565b91506141e8826141a7565b602082019050919050565b6000602082019050818103600083015261420c816141d0565b9050919050565b7f5072696365206d75737420626520657175616c20746f206c697374696e67207060008201527f7269636500000000000000000000000000000000000000000000000000000000602082015250565b600061426f602483613228565b915061427a82614213565b604082019050919050565b6000602082019050818103600083015261429e81614262565b9050919050565b7f74686520746f6b656e55524920616c7265616479206578697374730000000000600082015250565b60006142db601b83613228565b91506142e6826142a5565b602082019050919050565b6000602082019050818103600083015261430a816142ce565b9050919050565b7f45524337323155524953746f726167653a2055524920717565727920666f722060008201527f6e6f6e6578697374656e7420746f6b656e000000000000000000000000000000602082015250565b600061436d603183613228565b915061437882614311565b604082019050919050565b6000602082019050818103600083015261439c81614360565b9050919050565b60006143af8285613d79565b91506143bb8284613d79565b91508190509392505050565b60006143d2826132d8565b91506143dd836132d8565b9250827fffffffffffffffffffffffffffffffffffffffffffffffffffffffffffffffff0382111561441257614411613fec565b5b828201905092915050565b7f4f776e61626c653a206e6577206f776e657220697320746865207a65726f206160008201527f6464726573730000000000000000000000000000000000000000000000000000602082015250565b6000614479602683613228565b91506144848261441d565b604082019050919050565b600060208201905081810360008301526144a88161446c565b9050919050565b7f4552433732313a206f70657261746f7220717565727920666f72206e6f6e657860008201527f697374656e7420746f6b656e0000000000000000000000000000000000000000602082015250565b600061450b602c83613228565b9150614516826144af565b604082019050919050565b6000602082019050818103600083015261453a816144fe565b9050919050565b7f4552433732313a207472616e736665722066726f6d20696e636f72726563742060008201527f6f776e6572000000000000000000000000000000000000000000000000000000602082015250565b600061459d602583613228565b91506145a882614541565b604082019050919050565b600060208201905081810360008301526145cc81614590565b9050919050565b7f4552433732313a207472616e7366657220746f20746865207a65726f2061646460008201527f7265737300000000000000000000000000000000000000000000000000000000602082015250565b600061462f602483613228565b915061463a826145d3565b604082019050919050565b6000602082019050818103600083015261465e81614622565b9050919050565b6000614670826132d8565b915061467b836132d8565b92508282101561468e5761468d613fec565b5b828203905092915050565b7f436f756e7465723a2064656372656d656e74206f766572666c6f770000000000600082015250565b60006146cf601b83613228565b91506146da82614699565b602082019050919050565b600060208201905081810360008301526146fe816146c2565b9050919050565b7f4552433732313a20617070726f766520746f2063616c6c657200000000000000600082015250565b600061473b601983613228565b915061474682614705565b602082019050919050565b6000602082019050818103600083015261476a8161472e565b9050919050565b7f4552433732313a207472616e7366657220746f206e6f6e20455243373231526560008201527f63656976657220696d706c656d656e7465720000000000000000000000000000602082015250565b60006147cd603283613228565b91506147d882614771565b604082019050919050565b600060208201905081810360008301526147fc816147c0565b9050919050565b7f45524337323155524953746f726167653a2055524920736574206f66206e6f6e60008201527f6578697374656e7420746f6b656e000000000000000000000000000000000000602082015250565b600061485f602e83613228565b915061486a82614803565b604082019050919050565b6000602082019050818103600083015261488e81614852565b9050919050565b60006080820190506148aa6000830187613403565b6148b76020830186613403565b6148c4604083018561336d565b6148d160608301846131f3565b95945050505050565b7f4552433732314d657461646174613a2055524920717565727920666f72206e6f60008201527f6e6578697374656e7420746f6b656e0000000000000000000000000000000000602082015250565b6000614936602f83613228565b9150614941826148da565b604082019050919050565b6000602082019050818103600083015261496581614929565b9050919050565b600081519050919050565b600082825260208201905092915050565b60006149938261496c565b61499d8185614977565b93506149ad818560208601613239565b6149b68161326c565b840191505092915050565b60006080820190506149d6600083018761336d565b6149e3602083018661336d565b6149f06040830185613403565b8181036060830152614a028184614988565b905095945050505050565b600081519050614a1c8161318e565b92915050565b600060208284031215614a3857614a37613158565b5b6000614a4684828501614a0d565b91505092915050565b7f4e487b7100000000000000000000000000000000000000000000000000000000600052601260045260246000fd5b6000614a89826132d8565b9150614a94836132d8565b925082614aa457614aa3614a4f565b5b828204905092915050565b6000614aba826132d8565b9150614ac5836132d8565b925082614ad557614ad4614a4f565b5b828206905092915050565b7f4e487b7100000000000000000000000000000000000000000000000000000000600052603160045260246000fd5b7f4552433732313a206d696e7420746f20746865207a65726f2061646472657373600082015250565b6000614b45602083613228565b9150614b5082614b0f565b602082019050919050565b60006020820190508181036000830152614b7481614b38565b9050919050565b7f4552433732313a20746f6b656e20616c7265616479206d696e74656400000000600082015250565b6000614bb1601c83613228565b9150614bbc82614b7b565b602082019050919050565b60006020820190508181036000830152614be081614ba4565b905091905056fea26469706673582212203b6de59b1002d0fd03f089d7ab9bbcbbe1b9274af4aa34c54334455e179de90d64736f6c634300080d0033",
  "immutableReferences": {},
  "source": "// SPDX-License-Identifier: MIT\r\npragma solidity >=0.4.22 <0.9.0;\r\n\r\nimport '@openzeppelin/contracts/token/ERC721/extensions/ERC721URIStorage.sol';\r\nimport '@openzeppelin/contracts/utils/Counters.sol';\r\nimport '@openzeppelin/contracts/access/Ownable.sol';\r\n\r\ncontract NFTMarket is ERC721URIStorage, Ownable {\r\n  using Counters for Counters.Counter;\r\n\r\n  Counters.Counter private _listedItems;\r\n  Counters.Counter private _tokenIds;\r\n\r\n  struct NFTItem {\r\n    uint256 tokenId;\r\n    uint256 price;\r\n    address creator;\r\n    bool isListed;\r\n  }\r\n\r\n  uint256[] private _allNFTs;\r\n  mapping(uint256 => uint256) private _idToNFTIndex;\r\n\r\n  uint256 public listingPrice = 0.02 ether;\r\n\r\n  mapping(string => bool) private _existsTokenURIs;\r\n  mapping(uint256 => NFTItem) private _idToNFTItem;\r\n\r\n  mapping(address => mapping(uint256 => uint256)) private _ownedTokens;\r\n  mapping(uint256 => uint256) private _idToOwnedIndex;\r\n\r\n  event NFTItemCreated(\r\n    uint256 tokenId,\r\n    uint256 price,\r\n    address creator,\r\n    bool isListed\r\n  );\r\n\r\n  constructor() ERC721('FattyCreaturesNFT', 'FCNFT') {}\r\n\r\n  // functions\r\n\r\n  function tokenURIExists(string memory tokenURI) public view returns (bool) {\r\n    return _existsTokenURIs[tokenURI] == true;\r\n  }\r\n\r\n  function setListingPrice(uint256 newPrice) external onlyOwner {\r\n    require(newPrice > 0, 'Price must be at least 1 wei');\r\n    listingPrice = newPrice;\r\n  }\r\n\r\n  function mintToken(string memory tokenURI, uint256 price)\r\n    public\r\n    payable\r\n    returns (uint256)\r\n  {\r\n    require(!tokenURIExists(tokenURI), 'the tokenURI already exists');\r\n    require(msg.value == listingPrice, 'Price must be equal to listing price');\r\n\r\n    _tokenIds.increment();\r\n    _listedItems.increment();\r\n\r\n    uint256 newTokenId = _tokenIds.current();\r\n\r\n    _safeMint(msg.sender, newTokenId);\r\n\r\n    // function _setTokenURI(uint256 tokenId, string memory _tokenURI) internal virtual {\r\n    //     require(_exists(tokenId), \"ERC721URIStorage: URI set of nonexistent token\");\r\n    //     _tokenURIs[tokenId] = _tokenURI;\r\n    // }\r\n\r\n    _setTokenURI(newTokenId, tokenURI);\r\n    _createNFTItem(newTokenId, price);\r\n    _existsTokenURIs[tokenURI] = true;\r\n\r\n    return newTokenId;\r\n  }\r\n\r\n  function _createNFTItem(uint256 tokenId, uint256 price) private {\r\n    require(price > 0, 'Price must be at least 1 wei');\r\n\r\n    _idToNFTItem[tokenId] = NFTItem(tokenId, price, msg.sender, true);\r\n\r\n    emit NFTItemCreated(tokenId, price, msg.sender, true);\r\n  }\r\n\r\n  function totalSupply() public view returns (uint256) {\r\n    return _allNFTs.length;\r\n  }\r\n\r\n  function tokenByIndex(uint256 index) public view returns (uint256) {\r\n    require(index < totalSupply(), 'Index out of bounds');\r\n    return _allNFTs[index];\r\n  }\r\n\r\n  function tokenOfOwnerByIndex(address owner, uint256 index)\r\n    public\r\n    view\r\n    returns (uint256)\r\n  {\r\n    require(index < ERC721.balanceOf(owner), 'Index out of bounds');\r\n    return _ownedTokens[owner][index];\r\n  }\r\n\r\n  function getAllNFTsForSale() public view returns (NFTItem[] memory) {\r\n    uint256 allItemsCounts = totalSupply();\r\n    uint256 currentIndex = 0;\r\n    NFTItem[] memory items = new NFTItem[](_listedItems.current());\r\n\r\n    for (uint256 i = 0; i < allItemsCounts; i++) {\r\n      uint256 tokenId = tokenByIndex(i);\r\n      NFTItem storage item = _idToNFTItem[tokenId];\r\n\r\n      if (item.isListed == true) {\r\n        items[currentIndex] = item;\r\n        currentIndex += 1;\r\n      }\r\n    }\r\n\r\n    return items;\r\n  }\r\n\r\n  function listedItemsCount() public view returns (uint256) {\r\n    return _listedItems.current();\r\n  }\r\n\r\n  function getNFTItem(uint256 tokenId) public view returns (NFTItem memory) {\r\n    return _idToNFTItem[tokenId];\r\n  }\r\n\r\n  function buyNFT(uint256 tokenId) public payable {\r\n    uint256 itemPrice = _idToNFTItem[tokenId].price;\r\n    address owner = ERC721.ownerOf(tokenId);\r\n\r\n    require(msg.sender != owner, 'You already have the NFT');\r\n    require(msg.value == itemPrice, 'Please submit the asking price');\r\n\r\n    _idToNFTItem[tokenId].isListed = false;\r\n    _listedItems.decrement();\r\n\r\n    _transfer(owner, msg.sender, tokenId);\r\n    // \r\n    payable(owner).transfer(msg.value);\r\n  }\r\n\r\n  function _beforeTokenTransfer(\r\n    address from,\r\n    address to,\r\n    uint256 tokenId\r\n  ) internal virtual override {\r\n    super._beforeTokenTransfer(from, to, tokenId);\r\n\r\n    if (from == address(0)) {\r\n      _tokenToAllTokenEnumeration(tokenId);\r\n    } else if (from != to) {\r\n      _removeTokenFromOwner(from, tokenId);\r\n    }\r\n\r\n    if (to == address(0)) {\r\n      _removeAllTokens(tokenId);\r\n    } else if (to != from) {\r\n      _tokenToOwnerEnumeration(to, tokenId);\r\n    }\r\n  }\r\n\r\n  function _tokenToAllTokenEnumeration(uint256 tokenId) private {\r\n    _idToNFTIndex[tokenId] = _allNFTs.length;\r\n    _allNFTs.push(tokenId);\r\n  }\r\n\r\n  function _tokenToOwnerEnumeration(address to, uint256 tokenId) private {\r\n    // how many token you have\r\n    uint256 length = ERC721.balanceOf(to);\r\n\r\n    _ownedTokens[to][length] = tokenId;\r\n    _idToOwnedIndex[tokenId] = length;\r\n  }\r\n\r\n  function getOwnedNfts() public view returns (NFTItem[] memory) {\r\n    uint256 ownedItemsCount = ERC721.balanceOf(msg.sender);\r\n    NFTItem[] memory items = new NFTItem[](ownedItemsCount);\r\n\r\n    for (uint256 i = 0; i < ownedItemsCount; i++) {\r\n      uint256 tokenId = tokenOfOwnerByIndex(msg.sender, i);\r\n      NFTItem storage item = _idToNFTItem[tokenId];\r\n      items[i] = item;\r\n    }\r\n\r\n    return items;\r\n  }\r\n\r\n  function _removeTokenFromOwner(address from, uint256 tokenId) private {\r\n    uint256 lastTokenIndex = ERC721.balanceOf(from) - 1;\r\n    uint256 tokenIndex = _idToOwnedIndex[tokenId];\r\n\r\n    if (tokenIndex != lastTokenIndex) {\r\n      uint256 lastTokenId = _ownedTokens[from][lastTokenIndex];\r\n\r\n      _ownedTokens[from][tokenIndex] = lastTokenId;\r\n\r\n      _idToOwnedIndex[lastTokenId] = tokenIndex;\r\n    }\r\n\r\n    delete _idToOwnedIndex[tokenId];\r\n    delete _ownedTokens[from][lastTokenIndex];\r\n  }\r\n\r\n  function _removeAllTokens(uint256 tokenId) private {\r\n    // expamle: tokenId =2\r\n    // allNFTs: [1,2,3]\r\n    // _idToNFTIndex: [1=>0, 2=>1, 3=>2]\r\n\r\n    //2\r\n    uint256 lastTokenIndex = _allNFTs.length - 1;\r\n\r\n    // 1\r\n    uint256 tokenIndex = _idToNFTIndex[tokenId];\r\n\r\n    // 3\r\n    uint256 lastTokenId = _allNFTs[lastTokenIndex];\r\n\r\n    // 1=>3\r\n    _allNFTs[tokenIndex] = lastTokenId;\r\n\r\n    // 3=>1\r\n    _idToNFTIndex[lastTokenId] = tokenIndex;\r\n\r\n    // 2=>1 byebye\r\n    delete _idToNFTIndex[tokenId];\r\n\r\n    // [1,3]\r\n    _allNFTs.pop();\r\n  }\r\n\r\n  function burnToken(uint256 tokenId) public {\r\n    _burn(tokenId);\r\n  }\r\n\r\n  //\r\n  function placeNFTForSale(uint256 tokenId, uint256 newPrice) public payable {\r\n    require(\r\n      ERC721.ownerOf(tokenId) == msg.sender,\r\n      'You are not owner of this nft'\r\n    );\r\n    require(\r\n      _idToNFTItem[tokenId].isListed == false,\r\n      'Item is already for sale'\r\n    );\r\n    require(msg.value == listingPrice, 'Price must be equal to listing price');\r\n\r\n    _idToNFTItem[tokenId].isListed = true;\r\n    _idToNFTItem[tokenId].price = newPrice;\r\n    _listedItems.increment();\r\n  }\r\n}\r\n",
  "sourcePath": "C:\\Users\\CJS\\Desktop\\Blockchain\\nft-marketplace\\contracts\\NFTMarket.sol",
  "compiler": {
    "name": "solc",
    "version": "0.8.13+commit.abaa5c0e.Emscripten.clang"
  },
  "schemaVersion": "3.4.7",
  "updatedAt": "2022-05-29T05:29:21.203Z",
  "networkType": "ethereum",
  "devdoc": {
    "kind": "dev",
    "methods": {
      "approve(address,uint256)": {
        "details": "See {IERC721-approve}."
      },
      "balanceOf(address)": {
        "details": "See {IERC721-balanceOf}."
      },
      "getApproved(uint256)": {
        "details": "See {IERC721-getApproved}."
      },
      "isApprovedForAll(address,address)": {
        "details": "See {IERC721-isApprovedForAll}."
      },
      "name()": {
        "details": "See {IERC721Metadata-name}."
      },
      "owner()": {
        "details": "Returns the address of the current owner."
      },
      "ownerOf(uint256)": {
        "details": "See {IERC721-ownerOf}."
      },
      "renounceOwnership()": {
        "details": "Leaves the contract without owner. It will not be possible to call `onlyOwner` functions anymore. Can only be called by the current owner. NOTE: Renouncing ownership will leave the contract without an owner, thereby removing any functionality that is only available to the owner."
      },
      "safeTransferFrom(address,address,uint256)": {
        "details": "See {IERC721-safeTransferFrom}."
      },
      "safeTransferFrom(address,address,uint256,bytes)": {
        "details": "See {IERC721-safeTransferFrom}."
      },
      "setApprovalForAll(address,bool)": {
        "details": "See {IERC721-setApprovalForAll}."
      },
      "supportsInterface(bytes4)": {
        "details": "See {IERC165-supportsInterface}."
      },
      "symbol()": {
        "details": "See {IERC721Metadata-symbol}."
      },
      "tokenURI(uint256)": {
        "details": "See {IERC721Metadata-tokenURI}."
      },
      "transferFrom(address,address,uint256)": {
        "details": "See {IERC721-transferFrom}."
      },
      "transferOwnership(address)": {
        "details": "Transfers ownership of the contract to a new account (`newOwner`). Can only be called by the current owner."
      }
    },
    "version": 1
  },
  "userdoc": {
    "kind": "user",
    "methods": {},
    "version": 1
  }
}